{
  "_format": "hh-sol-artifact-1",
  "contractName": "StudentTest",
  "sourceName": "contracts/StudentTest.sol",
  "abi": [
    {
      "inputs": [],
      "stateMutability": "nonpayable",
      "type": "constructor"
    },
    {
      "inputs": [
        {
          "internalType": "uint8",
          "name": "percentage",
          "type": "uint8"
        }
      ],
      "name": "finishTest",
      "outputs": [],
      "stateMutability": "nonpayable",
      "type": "function"
    },
    {
      "inputs": [
        {
          "internalType": "string",
          "name": "name",
          "type": "string"
        }
      ],
      "name": "startTest",
      "outputs": [],
      "stateMutability": "payable",
      "type": "function"
    },
    {
      "inputs": [],
      "name": "viewLeaderboard",
      "outputs": [
        {
          "components": [
            {
              "internalType": "string",
              "name": "name",
              "type": "string"
            },
            {
              "internalType": "uint256",
              "name": "timestamp",
              "type": "uint256"
            },
            {
              "internalType": "uint8",
              "name": "percentage",
              "type": "uint8"
            },
            {
              "internalType": "uint256",
              "name": "amountInvested",
              "type": "uint256"
            },
            {
              "internalType": "uint256",
              "name": "amountReturned",
              "type": "uint256"
            },
            {
              "internalType": "address",
              "name": "participantAddress",
              "type": "address"
            }
          ],
          "internalType": "struct StudentTest.Participant[]",
          "name": "",
          "type": "tuple[]"
        }
      ],
      "stateMutability": "view",
      "type": "function"
    }
  ],
  "bytecode": "0x608060405234801561001057600080fd5b50336000806101000a81548173ffffffffffffffffffffffffffffffffffffffff021916908373ffffffffffffffffffffffffffffffffffffffff1602179055506000600860006101000a81548160ff02191690831515021790555061147d8061007b6000396000f3fe6080604052600436106100345760003560e01c806325417a5814610039578063403ac10d14610055578063f71700d914610080575b600080fd5b610053600480360381019061004e9190610aa0565b6100a9565b005b34801561006157600080fd5b5061006a610175565b6040516100779190610d29565b60405180910390f35b34801561008c57600080fd5b506100a760048036038101906100a29190610d77565b6102f7565b005b600034116100ec576040517f08c379a00000000000000000000000000000000000000000000000000000000081526004016100e390610e27565b60405180910390fd5b6001600860006101000a81548160ff02191690831515021790555080600260000190816101199190611053565b50426002600101819055503460026003018190555033600260050160006101000a81548173ffffffffffffffffffffffffffffffffffffffff021916908373ffffffffffffffffffffffffffffffffffffffff16021790555050565b60606001805480602002602001604051908101604052809291908181526020016000905b828210156102ee57838290600052602060002090600602016040518060c00160405290816000820180546101cc90610e76565b80601f01602080910402602001604051908101604052809291908181526020018280546101f890610e76565b80156102455780601f1061021a57610100808354040283529160200191610245565b820191906000526020600020905b81548152906001019060200180831161022857829003601f168201915b50505050508152602001600182015481526020016002820160009054906101000a900460ff1660ff1660ff16815260200160038201548152602001600482015481526020016005820160009054906101000a900473ffffffffffffffffffffffffffffffffffffffff1673ffffffffffffffffffffffffffffffffffffffff1673ffffffffffffffffffffffffffffffffffffffff168152505081526020019060010190610199565b50505050905090565b600860009054906101000a900460ff16610346576040517f08c379a000000000000000000000000000000000000000000000000000000000815260040161033d90611197565b60405180910390fd5b806002800160006101000a81548160ff021916908360ff16021790555060508160ff16111561039b576064603260026003015461038391906111e6565b61038d9190611257565b6002600401819055506103a7565b60006002600401819055505b3373ffffffffffffffffffffffffffffffffffffffff166108fc6002600401549081150290604051600060405180830381858888f193505050501580156103f2573d6000803e3d6000fd5b5060016002908060018154018082558091505060019003906000526020600020906006020160009091909190915060008201816000019081610434919061129e565b50600182015481600101556002820160009054906101000a900460ff168160020160006101000a81548160ff021916908360ff16021790555060038201548160030155600482015481600401556005820160009054906101000a900473ffffffffffffffffffffffffffffffffffffffff168160050160006101000a81548173ffffffffffffffffffffffffffffffffffffffff021916908373ffffffffffffffffffffffffffffffffffffffff16021790555050506000600860006101000a81548160ff02191690831515021790555061050d610510565b50565b60005b6001805490508160ff1610156109435760005b60018260ff1660018054905061053c9190611386565b6105469190611386565b8160ff16101561092f576001808261055e91906113ba565b60ff1681548110610572576105716113ef565b5b906000526020600020906006020160020160009054906101000a900460ff1660ff1660018260ff16815481106105ab576105aa6113ef565b5b906000526020600020906006020160020160009054906101000a900460ff1660ff16101561091c57600060018260ff16815481106105ec576105eb6113ef565b5b90600052602060002090600602016040518060c001604052908160008201805461061590610e76565b80601f016020809104026020016040519081016040528092919081815260200182805461064190610e76565b801561068e5780601f106106635761010080835404028352916020019161068e565b820191906000526020600020905b81548152906001019060200180831161067157829003601f168201915b50505050508152602001600182015481526020016002820160009054906101000a900460ff1660ff1660ff16815260200160038201548152602001600482015481526020016005820160009054906101000a900473ffffffffffffffffffffffffffffffffffffffff1673ffffffffffffffffffffffffffffffffffffffff1673ffffffffffffffffffffffffffffffffffffffff168152505090506001808361073891906113ba565b60ff168154811061074c5761074b6113ef565b5b906000526020600020906006020160018360ff1681548110610771576107706113ef565b5b906000526020600020906006020160008201816000019081610793919061129e565b50600182015481600101556002820160009054906101000a900460ff168160020160006101000a81548160ff021916908360ff16021790555060038201548160030155600482015481600401556005820160009054906101000a900473ffffffffffffffffffffffffffffffffffffffff168160050160006101000a81548173ffffffffffffffffffffffffffffffffffffffff021916908373ffffffffffffffffffffffffffffffffffffffff160217905550905050806001808461085991906113ba565b60ff168154811061086d5761086c6113ef565b5b906000526020600020906006020160008201518160000190816108909190611053565b506020820151816001015560408201518160020160006101000a81548160ff021916908360ff160217905550606082015181600301556080820151816004015560a08201518160050160006101000a81548173ffffffffffffffffffffffffffffffffffffffff021916908373ffffffffffffffffffffffffffffffffffffffff160217905550905050505b80806109279061141e565b915050610526565b50808061093b9061141e565b915050610513565b50565b6000604051905090565b600080fd5b600080fd5b600080fd5b600080fd5b6000601f19601f8301169050919050565b7f4e487b7100000000000000000000000000000000000000000000000000000000600052604160045260246000fd5b6109ad82610964565b810181811067ffffffffffffffff821117156109cc576109cb610975565b5b80604052505050565b60006109df610946565b90506109eb82826109a4565b919050565b600067ffffffffffffffff821115610a0b57610a0a610975565b5b610a1482610964565b9050602081019050919050565b82818337600083830152505050565b6000610a43610a3e846109f0565b6109d5565b905082815260208101848484011115610a5f57610a5e61095f565b5b610a6a848285610a21565b509392505050565b600082601f830112610a8757610a8661095a565b5b8135610a97848260208601610a30565b91505092915050565b600060208284031215610ab657610ab5610950565b5b600082013567ffffffffffffffff811115610ad457610ad3610955565b5b610ae084828501610a72565b91505092915050565b600081519050919050565b600082825260208201905092915050565b6000819050602082019050919050565b600081519050919050565b600082825260208201905092915050565b60005b83811015610b4f578082015181840152602081019050610b34565b60008484015250505050565b6000610b6682610b15565b610b708185610b20565b9350610b80818560208601610b31565b610b8981610964565b840191505092915050565b6000819050919050565b610ba781610b94565b82525050565b600060ff82169050919050565b610bc381610bad565b82525050565b600073ffffffffffffffffffffffffffffffffffffffff82169050919050565b6000610bf482610bc9565b9050919050565b610c0481610be9565b82525050565b600060c0830160008301518482036000860152610c278282610b5b565b9150506020830151610c3c6020860182610b9e565b506040830151610c4f6040860182610bba565b506060830151610c626060860182610b9e565b506080830151610c756080860182610b9e565b5060a0830151610c8860a0860182610bfb565b508091505092915050565b6000610c9f8383610c0a565b905092915050565b6000602082019050919050565b6000610cbf82610ae9565b610cc98185610af4565b935083602082028501610cdb85610b05565b8060005b85811015610d175784840389528151610cf88582610c93565b9450610d0383610ca7565b925060208a01995050600181019050610cdf565b50829750879550505050505092915050565b60006020820190508181036000830152610d438184610cb4565b905092915050565b610d5481610bad565b8114610d5f57600080fd5b50565b600081359050610d7181610d4b565b92915050565b600060208284031215610d8d57610d8c610950565b5b6000610d9b84828501610d62565b91505092915050565b600082825260208201905092915050565b7f416d6f756e74206d7573742062652067726561746572207468616e203020776560008201527f692e000000000000000000000000000000000000000000000000000000000000602082015250565b6000610e11602283610da4565b9150610e1c82610db5565b604082019050919050565b60006020820190508181036000830152610e4081610e04565b9050919050565b7f4e487b7100000000000000000000000000000000000000000000000000000000600052602260045260246000fd5b60006002820490506001821680610e8e57607f821691505b602082108103610ea157610ea0610e47565b5b50919050565b60008190508160005260206000209050919050565b60006020601f8301049050919050565b600082821b905092915050565b600060088302610f097fffffffffffffffffffffffffffffffffffffffffffffffffffffffffffffffff82610ecc565b610f138683610ecc565b95508019841693508086168417925050509392505050565b6000819050919050565b6000610f50610f4b610f4684610b94565b610f2b565b610b94565b9050919050565b6000819050919050565b610f6a83610f35565b610f7e610f7682610f57565b848454610ed9565b825550505050565b600090565b610f93610f86565b610f9e818484610f61565b505050565b5b81811015610fc257610fb7600082610f8b565b600181019050610fa4565b5050565b601f82111561100757610fd881610ea7565b610fe184610ebc565b81016020851015610ff0578190505b611004610ffc85610ebc565b830182610fa3565b50505b505050565b600082821c905092915050565b600061102a6000198460080261100c565b1980831691505092915050565b60006110438383611019565b9150826002028217905092915050565b61105c82610b15565b67ffffffffffffffff81111561107557611074610975565b5b61107f8254610e76565b61108a828285610fc6565b600060209050601f8311600181146110bd57600084156110ab578287015190505b6110b58582611037565b86555061111d565b601f1984166110cb86610ea7565b60005b828110156110f3578489015182556001820191506020850194506020810190506110ce565b86831015611110578489015161110c601f891682611019565b8355505b6001600288020188555050505b505050505050565b7f596f752068617665206e6f74207965742073746172746564207468652054657360008201527f7421000000000000000000000000000000000000000000000000000000000000602082015250565b6000611181602283610da4565b915061118c82611125565b604082019050919050565b600060208201905081810360008301526111b081611174565b9050919050565b7f4e487b7100000000000000000000000000000000000000000000000000000000600052601160045260246000fd5b60006111f182610b94565b91506111fc83610b94565b925082820261120a81610b94565b91508282048414831517611221576112206111b7565b5b5092915050565b7f4e487b7100000000000000000000000000000000000000000000000000000000600052601260045260246000fd5b600061126282610b94565b915061126d83610b94565b92508261127d5761127c611228565b5b828204905092915050565b60008154905061129781610e76565b9050919050565b8181036112ac575050611384565b6112b582611288565b67ffffffffffffffff8111156112ce576112cd610975565b5b6112d88254610e76565b6112e3828285610fc6565b6000601f8311600181146113125760008415611300578287015490505b61130a8582611037565b86555061137d565b601f19841661132087610ea7565b965061132b86610ea7565b60005b828110156113535784890154825560018201915060018501945060208101905061132e565b86831015611370578489015461136c601f891682611019565b8355505b6001600288020188555050505b5050505050505b565b600061139182610b94565b915061139c83610b94565b92508282039050818111156113b4576113b36111b7565b5b92915050565b60006113c582610bad565b91506113d083610bad565b9250828201905060ff8111156113e9576113e86111b7565b5b92915050565b7f4e487b7100000000000000000000000000000000000000000000000000000000600052603260045260246000fd5b600061142982610bad565b915060ff820361143c5761143b6111b7565b5b60018201905091905056fea2646970667358221220636e6201d0c787cbb65c9e2ef7c506eef518dd9f9fff09b9b39188f68af9c43c64736f6c63430008120033",
  "linkReferences": {},
  "deployedLinkReferences": {}
}